:100000000C9434000C943E000C943E000C943E0082
:100010000C943E000C943E000C943E000C943E0068
:100020000C943E000C943E000C943E000C943E0058
:100030000C943E000C943E000C943E000C943E0048
:100040000C943E000C943E000C943E000C943E0038
:100050000C943E000C943E000C943E000C943E0028
:100060000C943E000C943E0011241FBECFEFD8E04C
:10007000DEBFCDBF0E9440000C9455000C940000E0
:10008000E4E2F0E080818760808315B880E88AB977
:100090008BB9A9E2B0E0E5E2F0E097E08C9188232B
:0E00A00014F09083FBCF1082F9CFF894FFCFBD
:00000001FF
