:100000000C9434000C943E000C943E000C943E0082
:100010000C943E000C943E000C943E000C943E0068
:100020000C943E000C943E000C943E000C943E0058
:100030000C943E000C943E000C943E000C943E0048
:100040000C943E000C943E000C943E000C943E0038
:100050000C943E000C943E000C943E000C943E0028
:100060000C943E000C943E0011241FBECFEFD8E04C
:10007000DEBFCDBF0E9461000C9472000C940000A2
:1000800081E084B9ECE7F0E0808180648083EAE776
:10009000F0E08081866880830895EAE7F0E080815F
:1000A00080648083808184FFFDCFEAE7F0E0808177
:1000B000806180832091780030917900822F932F86
:1000C00008951F93CF93DF930E944000C5E2D0E0D4
:1000D00011E00E944D008150924010F01883F9CF3A
:0800E0001882F7CFF894FFCF5E
:00000001FF
