:100000000C9434000C943E000C943E000C943E0082
:100010000C943E000C943E000C943E000C943E0068
:100020000C943E000C943E000C943E000C943E0058
:100030000C943E000C943E000C943E000C943E0048
:100040000C943E000C943E000C943E000C943E0038
:100050000C943E000C943E000C943E000C943E0028
:100060000C943E000C943E0011241FBECFEFD8E04C
:10007000DEBFCDBF0E9456000C94A4000C9400007B
:1000800028EE33E044E151E0CA010197F1F7215035
:100090003040D1F785B1883019F481E085B90895F1
:1000A00085B1882311F484E085B90895CF92DF9259
:1000B000EF92FF920F931F93CF93DF93E4E2F0E070
:1000C000808187608083A5E2B0E01C92EAE2F0E0E4
:1000D000808180668083EBE2F0E0808180668083AF
:1000E0008C9181608C930F2EF9E2EF2EFF24F02D7E
:1000F0000F2EF8EECF2EF3E0DF2EF02DC4E1D1E08D
:1001000005E210E0F7018081882364F09601CE01BA
:100110000197F1F721503040D1F7F80180818695A1
:1001200080830FC0F701808185FD0BC09601CE0151
:100130000197F1F721503040D1F7F8018081880F05
:0C01400080830E944000DECFF894FFCFC7
:00000001FF
